0740000002400222222Novák, Jan          26061200000000019500+00000000019501+00000000000100-000000000001010000300612FIO           
0750000002400222222000000290023333300011487345300000000001002000000000000201005580000000000260612Novák, Pavel        00203260612
0750000002400222222000000290023333300011487347810000000001001000000000000201005580000000000260612                    00203260612
0750000002400222222000000000000000000011491901930000000000012000000000000000000000000000000300612Připsaný úrok       00203300612